:100000000C9446000C9465000C9465000C946500FB
:100010000C9465000C9465000C9465000C946500CC
:100020000C9465000C9465000C9465000C946500BC
:100030000C9465000C94B5000C9465000C9465005C
:100040000C9465000C9465000C9465000C9465009C
:100050000C9465000C9465000C9465000C9465008C
:100060000C9465000C9465000C9465000C9465007C
:100070000C9465000C9465000C9465000C9465006C
:100080000C9465000C9465000C94650011241FBE4F
:10009000CFEFD0E4DEBFCDBF11E0A0E0B1E0E2E4FD
:1000A000F5E000E00BBF02C007900D92A231B1074E
:1000B000D9F721E0A2E1B1E001C01D92AB31B20756
:1000C000E1F70E9470020C949F020C940000CF9301
:1000D000DF93CDB7DEB781E890E02BE0FC01208311
:1000E00088E890E02DE730E0FC01318320838FE643
:1000F00090E022E0FC01208384E890E0FC01118282
:1001000010828091000190910101A0910201B091B3
:1001100003018093130190931401A0931501B093F0
:1001200016018FE590E02FE530E0F901208120688D
:10013000FC0120830000DF91CF910895CF93DF93DE
:10014000CDB7DEB781E890E0FC0110820000DF91BE
:10015000CF910895CF93DF93CDB7DEB781E0809341
:1001600012010000DF91CF9108951F920F9200902D
:100170005F000F92112400905B000F922F933F932A
:100180004F935F936F937F938F939F93AF93BF939F
:10019000EF93FF93CF93DF93CDB7DEB78091130139
:1001A00090911401A0911501B09116010197A10938
:1001B000B1098093130190931401A0931501B0939A
:1001C00016018091130190911401A0911501B09135
:1001D0001601892B8A2B8B2B91F40E94AA00809107
:1001E000000190910101A0910201B091030180935F
:1001F000130190931401A0931501B0931601000010
:10020000DF91CF91FF91EF91BF91AF919F918F912E
:100210007F916F915F914F913F912F910F9000923D
:100220005B000F9000925F000F901F901895CF9386
:10023000DF9300D000D0CDB7DEB769837A838B839C
:100240009C8389819A81AB81BC81809300019093CA
:100250000101A0930201B0930301809100019091EC
:100260000101A0910201B0910301809313019093C9
:100270001401A0931501B093160100000F900F9088
:100280000F900F90DF91CF910895CF93DF9300D01F
:100290001F92CDB7DEB789837B836A8389818A30D9
:1002A00031F48A819B81BC018DE00E94450180EC84
:1002B00090E0FC018081882F90E080729927892B43
:1002C000B1F386EC90E02981FC01208380E090E08E
:1002D0000F900F900F90DF91CF910895CF93DF9300
:1002E000CDB7DEB780E290E0FC018081809583701D
:1002F0008093170180911801909119018130910527
:1003000009F445C08130910540F08230910509F42F
:100310007AC0039709F4B2C0CEC080911701813032
:1003200091F480911A01893020F480911A018F5F35
:1003300002C080911A0180931A0181E090E09093AD
:1003400019018093180180911701823091F48091F6
:100350001A01882321F080911A01815002C08091F6
:100360001A0180931A0182E090E090931901809322
:10037000180180911701833009F0A1C010921A0171
:1003800083E090E0909319018093180198C08091C8
:100390001701882321F410921901109218018091FD
:1003A0001701813061F480911A01893020F4809125
:1003B0001A018F5F02C080911A0180931A01809107
:1003C0001701823091F480911A01882321F08091E5
:1003D0001A01815002C080911A0180931A0182E0B3
:1003E00090E0909319018093180180911701833058
:1003F00009F067C010921A0183E090E09093190110
:10040000809318015EC080911701882321F4109217
:1004100019011092180180911701813091F4809197
:100420001A01893020F480911A018F5F02C08091F7
:100430001A0180931A0181E090E090931901809352
:10044000180180911701823061F480911A0188238C
:1004500021F080911A01815002C080911A0180938D
:100460001A0180911701833071F510921A0183E00F
:1004700090E0909319018093180125C08091170195
:10048000882321F41092190110921801809117010C
:10049000813031F481E090E090931901809318014C
:1004A00080911701823089F482E090E090931901E5
:1004B000809318010AC08FEF80931A0107C00000D3
:1004C00005C0000003C0000001C0000085E290E00C
:1004D00020911A01FC0120830000DF91CF91089543
:1004E000CF93DF93CDB7DEB781E290E0FC011082BD
:1004F00082E290E02FEFFC01208384E290E02FEF76
:10050000FC01208385E290E027E0FC01208364E683
:1005100070E080E090E00E9417010E946700109256
:1005200019011092180187E080931A01809112013D
:100530008823E1F30E946E0110921201F7CFF89424
:02054000FFCFEB
:100542000100000000000002000000004501000060
:020552000000A7
:00000001FF
